{
 "cells": [
  {
   "cell_type": "markdown",
   "metadata": {},
   "source": [
    "## Basic function   \n",
    "pip install web3  "
   ]
  },
  {
   "cell_type": "code",
   "execution_count": 1,
   "metadata": {},
   "outputs": [],
   "source": [
    "from web3 import Web3, HTTPProvider, IPCProvider, WebsocketProvider"
   ]
  },
  {
   "cell_type": "code",
   "execution_count": 2,
   "metadata": {},
   "outputs": [
    {
     "data": {
      "text/plain": [
       "<property at 0x7f84d2649598>"
      ]
     },
     "execution_count": 2,
     "metadata": {},
     "output_type": "execute_result"
    }
   ],
   "source": [
    "Web3.api"
   ]
  },
  {
   "cell_type": "code",
   "execution_count": 11,
   "metadata": {},
   "outputs": [],
   "source": [
    "# 链接JSON-RPC servers.\n",
    "web3 = Web3(HTTPProvider(\"HTTP://192.168.200.215:7545\"))"
   ]
  },
  {
   "cell_type": "code",
   "execution_count": 12,
   "metadata": {},
   "outputs": [
    {
     "data": {
      "text/plain": [
       "'5.0.1'"
      ]
     },
     "execution_count": 12,
     "metadata": {},
     "output_type": "execute_result"
    }
   ],
   "source": [
    "# the current Web3 version\n",
    "web3.api"
   ]
  },
  {
   "cell_type": "code",
   "execution_count": 13,
   "metadata": {},
   "outputs": [
    {
     "data": {
      "text/plain": [
       "<web3.version.Version at 0x7f84d251cda0>"
      ]
     },
     "execution_count": 13,
     "metadata": {},
     "output_type": "execute_result"
    }
   ],
   "source": [
    "web3.version"
   ]
  },
  {
   "cell_type": "markdown",
   "metadata": {},
   "source": [
    "### Base API"
   ]
  },
  {
   "cell_type": "code",
   "execution_count": 14,
   "metadata": {},
   "outputs": [
    {
     "data": {
      "text/plain": [
       "'0x68656c6c6f20776f726c6421'"
      ]
     },
     "execution_count": 14,
     "metadata": {},
     "output_type": "execute_result"
    }
   ],
   "source": [
    "Web3.toHex(text= \"hello world!\")"
   ]
  },
  {
   "cell_type": "code",
   "execution_count": 15,
   "metadata": {},
   "outputs": [
    {
     "data": {
      "text/plain": [
       "'0x68656c6c6f20776f726c6421'"
      ]
     },
     "execution_count": 15,
     "metadata": {},
     "output_type": "execute_result"
    }
   ],
   "source": [
    "web3.toHex(text= \"hello world!\") #也可用实例调用"
   ]
  },
  {
   "cell_type": "code",
   "execution_count": 16,
   "metadata": {},
   "outputs": [
    {
     "data": {
      "text/plain": [
       "1000000000000000000"
      ]
     },
     "execution_count": 16,
     "metadata": {},
     "output_type": "execute_result"
    }
   ],
   "source": [
    "Web3.toWei(1, 'ether')"
   ]
  },
  {
   "cell_type": "markdown",
   "metadata": {},
   "source": [
    "### eth API"
   ]
  },
  {
   "cell_type": "code",
   "execution_count": 17,
   "metadata": {},
   "outputs": [
    {
     "data": {
      "text/plain": [
       "'0x0E25F0a98bd2ce8f01BBa053BE509E47f2f99E91'"
      ]
     },
     "execution_count": 17,
     "metadata": {},
     "output_type": "execute_result"
    }
   ],
   "source": [
    "web3.eth.coinbase"
   ]
  },
  {
   "cell_type": "code",
   "execution_count": 18,
   "metadata": {},
   "outputs": [
    {
     "data": {
      "text/plain": [
       "AttributeDict({'number': 29,\n",
       " 'hash': HexBytes('0xa1c9c1bf03839e124c81f5491e658415a92a40de79f3127ec1122c3994c2a42a'),\n",
       " 'parentHash': HexBytes('0x20b5f759dac943a6af461bdd17f2c2dabe14355f9c30b92cb6f64595ec48f6b8'),\n",
       " 'mixHash': HexBytes('0x0000000000000000000000000000000000000000000000000000000000000000'),\n",
       " 'nonce': HexBytes('0x0000000000000000'),\n",
       " 'sha3Uncles': HexBytes('0x1dcc4de8dec75d7aab85b567b6ccd41ad312451b948a7413f0a142fd40d49347'),\n",
       " 'logsBloom': HexBytes('0x00000000000000000000000000000000000000000000000000000000000000000000000000000000000000000000000000000000000000000000000000000000000000000000000000000000000000000000000000000000000000000000000000000000000000000000000000000000000000000000000000000000000000000000000000000000000000000000000000000000000000000000000000000000000000000000000000000000000000000000000000000000000000000000000000000000000000000000000000000000000000000000000000000000000000000000000000000000000000000000000000000000000000000000000000000000'),\n",
       " 'transactionsRoot': HexBytes('0xa9c7e6af0ba39c02a538c95abb003bcd722a6d3ec68acf26d3303fa75f354901'),\n",
       " 'stateRoot': HexBytes('0x80ea4c049476118aeb98df59d6e586ea784346846fd25110ff7cb438f38cac5f'),\n",
       " 'receiptsRoot': HexBytes('0x056b23fbba480696b65fe5a59b8f2148a1299103c4f57df839233af2cf4ca2d2'),\n",
       " 'miner': '0x0000000000000000000000000000000000000000',\n",
       " 'difficulty': 0,\n",
       " 'totalDifficulty': 0,\n",
       " 'extraData': HexBytes('0x'),\n",
       " 'size': 1000,\n",
       " 'gasLimit': 6721975,\n",
       " 'gasUsed': 21000,\n",
       " 'timestamp': 1570635551,\n",
       " 'transactions': [HexBytes('0x41b6f0fab3cbb3663f2ee4bdb166a56d795ecedfd9b3231cf6dac673032cfb3f')],\n",
       " 'uncles': []})"
      ]
     },
     "execution_count": 18,
     "metadata": {},
     "output_type": "execute_result"
    }
   ],
   "source": [
    "web3.eth.getBlock('latest')"
   ]
  },
  {
   "cell_type": "code",
   "execution_count": 19,
   "metadata": {},
   "outputs": [
    {
     "data": {
      "text/plain": [
       "<eth_account.account.Account at 0x7f84d367bb70>"
      ]
     },
     "execution_count": 19,
     "metadata": {},
     "output_type": "execute_result"
    }
   ],
   "source": [
    "web3.eth.account"
   ]
  },
  {
   "cell_type": "code",
   "execution_count": 20,
   "metadata": {},
   "outputs": [
    {
     "data": {
      "text/plain": [
       "['0x0E25F0a98bd2ce8f01BBa053BE509E47f2f99E91',\n",
       " '0xEB8384eBba808E10af03AE71eF2c7BAAE40dFd06',\n",
       " '0x37CEA667403DF99E7a3Fb3cae8BA5384755D597b',\n",
       " '0xba6e744339fbFdA785A96656dDE3c29ff4a792Fd',\n",
       " '0x100F0244cd5dc8D51eA3800F03C353EF84BEE42d',\n",
       " '0x59ec84Acb01e485Bf54a8Fa0FD72155C3313F1a9',\n",
       " '0xC8541e2622A0F66e9bCb89Ddd0416612cfA832B2',\n",
       " '0xed83f120DA90F4e1DEA1D52684f74cA071c58c60',\n",
       " '0xa1DddEBCEed2DA2E306E49F3B8Ed4FAb96F95617',\n",
       " '0x34B532ce792Be852296C216bc5600e6823b86117']"
      ]
     },
     "execution_count": 20,
     "metadata": {},
     "output_type": "execute_result"
    }
   ],
   "source": [
    "list = web3.eth.accounts\n",
    "list "
   ]
  },
  {
   "cell_type": "code",
   "execution_count": 21,
   "metadata": {},
   "outputs": [
    {
     "data": {
      "text/plain": [
       "<web3._utils.empty.Empty at 0x7f84d3642f60>"
      ]
     },
     "execution_count": 21,
     "metadata": {},
     "output_type": "execute_result"
    }
   ],
   "source": [
    "web3.eth.defaultAccount"
   ]
  },
  {
   "cell_type": "code",
   "execution_count": 22,
   "metadata": {},
   "outputs": [
    {
     "data": {
      "text/plain": [
       "'latest'"
      ]
     },
     "execution_count": 22,
     "metadata": {},
     "output_type": "execute_result"
    }
   ],
   "source": [
    "web3.eth.defaultBlock"
   ]
  },
  {
   "cell_type": "code",
   "execution_count": 19,
   "metadata": {},
   "outputs": [
    {
     "data": {
      "text/plain": [
       "20000000000"
      ]
     },
     "execution_count": 19,
     "metadata": {},
     "output_type": "execute_result"
    }
   ],
   "source": [
    "web3.eth.gasPrice"
   ]
  },
  {
   "cell_type": "code",
   "execution_count": 20,
   "metadata": {},
   "outputs": [
    {
     "data": {
      "text/plain": [
       "99193365219999999022"
      ]
     },
     "execution_count": 20,
     "metadata": {},
     "output_type": "execute_result"
    }
   ],
   "source": [
    "web3.eth.getBalance(list[0])"
   ]
  },
  {
   "cell_type": "code",
   "execution_count": 21,
   "metadata": {},
   "outputs": [
    {
     "data": {
      "text/plain": [
       "True"
      ]
     },
     "execution_count": 21,
     "metadata": {},
     "output_type": "execute_result"
    }
   ],
   "source": [
    "# whether the node is currently mining.\n",
    "web3.eth.mining"
   ]
  },
  {
   "cell_type": "code",
   "execution_count": 22,
   "metadata": {},
   "outputs": [
    {
     "data": {
      "text/plain": [
       "0"
      ]
     },
     "execution_count": 22,
     "metadata": {},
     "output_type": "execute_result"
    }
   ],
   "source": [
    "web3.eth.hashrate"
   ]
  },
  {
   "cell_type": "code",
   "execution_count": 23,
   "metadata": {},
   "outputs": [
    {
     "data": {
      "text/plain": [
       "27"
      ]
     },
     "execution_count": 23,
     "metadata": {},
     "output_type": "execute_result"
    }
   ],
   "source": [
    "web3.eth.blockNumber"
   ]
  },
  {
   "cell_type": "code",
   "execution_count": 24,
   "metadata": {},
   "outputs": [
    {
     "data": {
      "text/plain": [
       "'99'"
      ]
     },
     "execution_count": 24,
     "metadata": {},
     "output_type": "execute_result"
    }
   ],
   "source": [
    "# the id of the current Ethereum protocol version.\n",
    "web3.eth.protocolVersion"
   ]
  },
  {
   "cell_type": "code",
   "execution_count": 25,
   "metadata": {},
   "outputs": [
    {
     "data": {
      "text/plain": [
       "1337"
      ]
     },
     "execution_count": 25,
     "metadata": {},
     "output_type": "execute_result"
    }
   ],
   "source": [
    "web3.eth.chainId"
   ]
  },
  {
   "cell_type": "markdown",
   "metadata": {},
   "source": [
    "### send Transaction"
   ]
  },
  {
   "cell_type": "code",
   "execution_count": 26,
   "metadata": {},
   "outputs": [
    {
     "data": {
      "text/plain": [
       "HexBytes('0xae39f774e7943ffc5c64594386ebb552ebf339c58054da17e6ef8a6ddd52cccf')"
      ]
     },
     "execution_count": 26,
     "metadata": {},
     "output_type": "execute_result"
    }
   ],
   "source": [
    "# return TX HASH\n",
    "web3.eth.sendTransaction({\n",
    "    'from' :list[0],\n",
    "    'to' : list[1],\n",
    "    'value': Web3.toWei(0.15, 'ether')\n",
    "})"
   ]
  },
  {
   "cell_type": "code",
   "execution_count": 27,
   "metadata": {},
   "outputs": [
    {
     "data": {
      "text/plain": [
       "AttributeDict({'hash': HexBytes('0x20e571fd0e61fb38a628d638b0bc10f8185f827e109c46ec538619c2493a6203'),\n",
       " 'nonce': 0,\n",
       " 'blockHash': HexBytes('0xced090c959eee2d74565083f183b0a2c2091e5d890659c660d93e532f95028e6'),\n",
       " 'blockNumber': 1,\n",
       " 'transactionIndex': 0,\n",
       " 'from': '0x0E25F0a98bd2ce8f01BBa053BE509E47f2f99E91',\n",
       " 'to': '0xEB8384eBba808E10af03AE71eF2c7BAAE40dFd06',\n",
       " 'value': 150000000000000000,\n",
       " 'gas': 121000,\n",
       " 'gasPrice': 20000000000,\n",
       " 'input': '0x',\n",
       " 'v': 28,\n",
       " 'r': HexBytes('0xfa97911bb415cab8bd53875ded5859591011cfc9969798e85c25358418d1b992'),\n",
       " 's': HexBytes('0x5b35ec96820971bbc7c69f6bb7fa832ad4af8f2345f986aabdd7593acc90eff7')})"
      ]
     },
     "execution_count": 27,
     "metadata": {},
     "output_type": "execute_result"
    }
   ],
   "source": [
    "web3.eth.getTransaction('0x20e571fd0e61fb38a628d638b0bc10f8185f827e109c46ec538619c2493a6203')"
   ]
  },
  {
   "cell_type": "markdown",
   "metadata": {},
   "source": [
    "#### sent signed Transaction."
   ]
  },
  {
   "cell_type": "code",
   "execution_count": 28,
   "metadata": {},
   "outputs": [],
   "source": [
    "privatekey = '0x'+'c7391bfcd18888e3ce3a2c86616a04c7cdf20711f6bf5e214aefef048bf2bf4a'"
   ]
  },
  {
   "cell_type": "code",
   "execution_count": 29,
   "metadata": {},
   "outputs": [
    {
     "data": {
      "text/plain": [
       "{'nonce': 17,\n",
       " 'gasPrice': 20000000000,\n",
       " 'gas': 100000,\n",
       " 'to': '0x37CEA667403DF99E7a3Fb3cae8BA5384755D597b',\n",
       " 'value': 150000000000000000,\n",
       " 'data': b''}"
      ]
     },
     "execution_count": 29,
     "metadata": {},
     "output_type": "execute_result"
    }
   ],
   "source": [
    "rawTx = dict(\n",
    "    nonce=web3.eth.getTransactionCount(web3.eth.coinbase),\n",
    "    gasPrice=web3.eth.gasPrice,\n",
    "    gas=100000,\n",
    "    to=list[2],\n",
    "    value= Web3.toWei(0.15, 'ether'),\n",
    "    data=b'',\n",
    "    )\n",
    "rawTx"
   ]
  },
  {
   "cell_type": "code",
   "execution_count": 30,
   "metadata": {},
   "outputs": [
    {
     "ename": "TypeError",
     "evalue": "signTransaction() takes 2 positional arguments but 3 were given",
     "output_type": "error",
     "traceback": [
      "\u001b[0;31m---------------------------------------------------------------------------\u001b[0m",
      "\u001b[0;31mTypeError\u001b[0m                                 Traceback (most recent call last)",
      "\u001b[0;32m<ipython-input-30-0d0d7c5fd4b4>\u001b[0m in \u001b[0;36m<module>\u001b[0;34m\u001b[0m\n\u001b[0;32m----> 1\u001b[0;31m \u001b[0msignedTx\u001b[0m \u001b[0;34m=\u001b[0m \u001b[0mweb3\u001b[0m\u001b[0;34m.\u001b[0m\u001b[0meth\u001b[0m\u001b[0;34m.\u001b[0m\u001b[0msignTransaction\u001b[0m\u001b[0;34m(\u001b[0m\u001b[0mrawTx\u001b[0m\u001b[0;34m,\u001b[0m\u001b[0mprivatekey\u001b[0m\u001b[0;34m)\u001b[0m\u001b[0;34m\u001b[0m\u001b[0;34m\u001b[0m\u001b[0m\n\u001b[0m",
      "\u001b[0;31mTypeError\u001b[0m: signTransaction() takes 2 positional arguments but 3 were given"
     ]
    }
   ],
   "source": [
    "signedTx = web3.eth.signTransaction(rawTx,privatekey)"
   ]
  },
  {
   "cell_type": "code",
   "execution_count": 31,
   "metadata": {},
   "outputs": [
    {
     "data": {
      "text/plain": [
       "AttributeDict({'rawTransaction': HexBytes('0xf86d118504a817c800830186a09437cea667403df99e7a3fb3cae8ba5384755d597b880214e8348c4f0000801ba041d6b0ef3306af380b841554eb12eeefcec001ee53ff8b95e7d4af36ec55dacfa036ff952368f312202dda1e4c862cf86f2fed62435ff196118e6941e46a6d5f25'),\n",
       " 'hash': HexBytes('0x41b6f0fab3cbb3663f2ee4bdb166a56d795ecedfd9b3231cf6dac673032cfb3f'),\n",
       " 'r': 29779661585932854776916606640124424611505161521123387598170269716935177788111,\n",
       " 's': 24876469139871149982743517360112135051776908121738709091276678154556361498405,\n",
       " 'v': 27})"
      ]
     },
     "execution_count": 31,
     "metadata": {},
     "output_type": "execute_result"
    }
   ],
   "source": [
    "signedTx = web3.eth.account.signTransaction(rawTx,privatekey)\n",
    "signedTx"
   ]
  },
  {
   "cell_type": "code",
   "execution_count": 32,
   "metadata": {},
   "outputs": [
    {
     "data": {
      "text/plain": [
       "HexBytes('0x41b6f0fab3cbb3663f2ee4bdb166a56d795ecedfd9b3231cf6dac673032cfb3f')"
      ]
     },
     "execution_count": 32,
     "metadata": {},
     "output_type": "execute_result"
    }
   ],
   "source": [
    "web3.eth.sendRawTransaction(signedTx.rawTransaction)"
   ]
  },
  {
   "cell_type": "markdown",
   "metadata": {},
   "source": [
    "## Interact with Smart Contract"
   ]
  },
  {
   "cell_type": "markdown",
   "metadata": {},
   "source": [
    "### Compile Smart Contract\n",
    "sudo add-apt-repository ppa:ethereum/ethereum    \n",
    "sudo apt-get update    \n",
    "sudo apt-get install solc        \n",
    "pip install py-solc     \n",
    "  "
   ]
  },
  {
   "cell_type": "code",
   "execution_count": 23,
   "metadata": {},
   "outputs": [],
   "source": [
    "from solcx import compile_standard"
   ]
  },
  {
   "cell_type": "code",
   "execution_count": 24,
   "metadata": {},
   "outputs": [
    {
     "data": {
      "text/plain": [
       "'pragma solidity ^0.5.0;\\n\\ncontract Calc{\\n\\n  uint result;\\n\\n\\n  function add(uint a, uint b) public returns(uint){\\n    result = a + b;\\n    return result;\\n  }\\n\\n\\n  function getCount() public view returns (uint){\\n    return result;\\n  }\\n}'"
      ]
     },
     "execution_count": 24,
     "metadata": {},
     "output_type": "execute_result"
    }
   ],
   "source": [
    "# read sol file. \n",
    "with open(\"./contracts/add.sol\") as f:\n",
    "    data = f.read()\n",
    "data    "
   ]
  },
  {
   "cell_type": "code",
   "execution_count": 25,
   "metadata": {},
   "outputs": [],
   "source": [
    "input = {\n",
    "    \"language\": \"Solidity\",\n",
    "    \"sources\": {\n",
    "        \"add.sol\": {\n",
    "            \"content\": data\n",
    "        }\n",
    "    },\n",
    "    \"settings\":\n",
    "    {\n",
    "        \"outputSelection\": {\n",
    "            \"*\": {\n",
    "                \"*\": [\n",
    "                    \"metadata\", \"evm.bytecode\", \"evm.bytecode.sourceMap\"\n",
    "                ]\n",
    "            }\n",
    "        }\n",
    "    }\n",
    "}"
   ]
  },
  {
   "cell_type": "code",
   "execution_count": 26,
   "metadata": {},
   "outputs": [
    {
     "data": {
      "text/plain": [
       "{'contracts': {'add.sol': {'Calc': {'evm': {'bytecode': {'linkReferences': {},\n",
       "      'object': '608060405234801561001057600080fd5b5060f08061001f6000396000f3fe6080604052348015600f57600080fd5b506004361060325760003560e01c8063771602f7146037578063a87d942c146080575b600080fd5b606a60048036036040811015604b57600080fd5b810190808035906020019092919080359060200190929190505050609c565b6040518082815260200191505060405180910390f35b608660b2565b6040518082815260200191505060405180910390f35b6000818301600081905550600054905092915050565b6000805490509056fea265627a7a72305820e61d34a5b8b17790906c15843ef50c7b082984b7e6377b87b4ad0c628395d94064736f6c634300050a0032',\n",
       "      'opcodes': 'PUSH1 0x80 PUSH1 0x40 MSTORE CALLVALUE DUP1 ISZERO PUSH2 0x10 JUMPI PUSH1 0x0 DUP1 REVERT JUMPDEST POP PUSH1 0xF0 DUP1 PUSH2 0x1F PUSH1 0x0 CODECOPY PUSH1 0x0 RETURN INVALID PUSH1 0x80 PUSH1 0x40 MSTORE CALLVALUE DUP1 ISZERO PUSH1 0xF JUMPI PUSH1 0x0 DUP1 REVERT JUMPDEST POP PUSH1 0x4 CALLDATASIZE LT PUSH1 0x32 JUMPI PUSH1 0x0 CALLDATALOAD PUSH1 0xE0 SHR DUP1 PUSH4 0x771602F7 EQ PUSH1 0x37 JUMPI DUP1 PUSH4 0xA87D942C EQ PUSH1 0x80 JUMPI JUMPDEST PUSH1 0x0 DUP1 REVERT JUMPDEST PUSH1 0x6A PUSH1 0x4 DUP1 CALLDATASIZE SUB PUSH1 0x40 DUP2 LT ISZERO PUSH1 0x4B JUMPI PUSH1 0x0 DUP1 REVERT JUMPDEST DUP2 ADD SWAP1 DUP1 DUP1 CALLDATALOAD SWAP1 PUSH1 0x20 ADD SWAP1 SWAP3 SWAP2 SWAP1 DUP1 CALLDATALOAD SWAP1 PUSH1 0x20 ADD SWAP1 SWAP3 SWAP2 SWAP1 POP POP POP PUSH1 0x9C JUMP JUMPDEST PUSH1 0x40 MLOAD DUP1 DUP3 DUP2 MSTORE PUSH1 0x20 ADD SWAP2 POP POP PUSH1 0x40 MLOAD DUP1 SWAP2 SUB SWAP1 RETURN JUMPDEST PUSH1 0x86 PUSH1 0xB2 JUMP JUMPDEST PUSH1 0x40 MLOAD DUP1 DUP3 DUP2 MSTORE PUSH1 0x20 ADD SWAP2 POP POP PUSH1 0x40 MLOAD DUP1 SWAP2 SUB SWAP1 RETURN JUMPDEST PUSH1 0x0 DUP2 DUP4 ADD PUSH1 0x0 DUP2 SWAP1 SSTORE POP PUSH1 0x0 SLOAD SWAP1 POP SWAP3 SWAP2 POP POP JUMP JUMPDEST PUSH1 0x0 DUP1 SLOAD SWAP1 POP SWAP1 JUMP INVALID LOG2 PUSH6 0x627A7A723058 KECCAK256 0xe6 SAR CALLVALUE 0xa5 0xb8 0xb1 PUSH24 0x90906C15843EF50C7B082984B7E6377B87B4AD0C628395D9 BLOCKHASH PUSH5 0x736F6C6343 STOP SDIV EXP STOP ORIGIN ',\n",
       "      'sourceMap': '25:205:0:-;;;;8:9:-1;5:2;;;30:1;27;20:12;5:2;25:205:0;;;;;;;'}},\n",
       "    'metadata': '{\"compiler\":{\"version\":\"0.5.10+commit.5a6ea5b1\"},\"language\":\"Solidity\",\"output\":{\"abi\":[{\"constant\":false,\"inputs\":[{\"name\":\"a\",\"type\":\"uint256\"},{\"name\":\"b\",\"type\":\"uint256\"}],\"name\":\"add\",\"outputs\":[{\"name\":\"\",\"type\":\"uint256\"}],\"payable\":false,\"stateMutability\":\"nonpayable\",\"type\":\"function\"},{\"constant\":true,\"inputs\":[],\"name\":\"getCount\",\"outputs\":[{\"name\":\"\",\"type\":\"uint256\"}],\"payable\":false,\"stateMutability\":\"view\",\"type\":\"function\"}],\"devdoc\":{\"methods\":{}},\"userdoc\":{\"methods\":{}}},\"settings\":{\"compilationTarget\":{\"add.sol\":\"Calc\"},\"evmVersion\":\"petersburg\",\"libraries\":{},\"optimizer\":{\"enabled\":false,\"runs\":200},\"remappings\":[]},\"sources\":{\"add.sol\":{\"keccak256\":\"0xbe9e61ad987dd22eb290b848998f585f3d3030fb5d1b9bc65e4cb47c476b953c\",\"urls\":[\"bzzr://71ee62531d28f14307962f359f6845065f3a49fae23e256c26b6df712fea8dff\",\"dweb:/ipfs/Qmc1vQh8t9jU1KmZnURNG6mkKgGDDFJbvHjJUu19a5aaNJ\"]}},\"version\":1}'}}},\n",
       " 'sources': {'add.sol': {'id': 0}}}"
      ]
     },
     "execution_count": 26,
     "metadata": {},
     "output_type": "execute_result"
    }
   ],
   "source": [
    "compiledSol = compile_standard(input) \n",
    "compiledSol"
   ]
  },
  {
   "cell_type": "code",
   "execution_count": 27,
   "metadata": {},
   "outputs": [
    {
     "data": {
      "text/plain": [
       "'608060405234801561001057600080fd5b5060f08061001f6000396000f3fe6080604052348015600f57600080fd5b506004361060325760003560e01c8063771602f7146037578063a87d942c146080575b600080fd5b606a60048036036040811015604b57600080fd5b810190808035906020019092919080359060200190929190505050609c565b6040518082815260200191505060405180910390f35b608660b2565b6040518082815260200191505060405180910390f35b6000818301600081905550600054905092915050565b6000805490509056fea265627a7a72305820e61d34a5b8b17790906c15843ef50c7b082984b7e6377b87b4ad0c628395d94064736f6c634300050a0032'"
      ]
     },
     "execution_count": 27,
     "metadata": {},
     "output_type": "execute_result"
    }
   ],
   "source": [
    "bytecode = compiledSol['contracts']['add.sol']['Calc']['evm']['bytecode']['object']\n",
    "bytecode"
   ]
  },
  {
   "cell_type": "code",
   "execution_count": 28,
   "metadata": {},
   "outputs": [],
   "source": [
    "import json"
   ]
  },
  {
   "cell_type": "code",
   "execution_count": 29,
   "metadata": {},
   "outputs": [
    {
     "data": {
      "text/plain": [
       "[{'constant': False,\n",
       "  'inputs': [{'name': 'a', 'type': 'uint256'},\n",
       "   {'name': 'b', 'type': 'uint256'}],\n",
       "  'name': 'add',\n",
       "  'outputs': [{'name': '', 'type': 'uint256'}],\n",
       "  'payable': False,\n",
       "  'stateMutability': 'nonpayable',\n",
       "  'type': 'function'},\n",
       " {'constant': True,\n",
       "  'inputs': [],\n",
       "  'name': 'getCount',\n",
       "  'outputs': [{'name': '', 'type': 'uint256'}],\n",
       "  'payable': False,\n",
       "  'stateMutability': 'view',\n",
       "  'type': 'function'}]"
      ]
     },
     "execution_count": 29,
     "metadata": {},
     "output_type": "execute_result"
    }
   ],
   "source": [
    "abi = json.loads(compiledSol['contracts']['add.sol']['Calc']['metadata'])['output']['abi']\n",
    "abi"
   ]
  },
  {
   "cell_type": "markdown",
   "metadata": {},
   "source": [
    "### Create SC"
   ]
  },
  {
   "cell_type": "code",
   "execution_count": 30,
   "metadata": {},
   "outputs": [],
   "source": [
    "from web3 import Web3, HTTPProvider"
   ]
  },
  {
   "cell_type": "code",
   "execution_count": 31,
   "metadata": {},
   "outputs": [],
   "source": [
    "web3 = Web3(HTTPProvider(\"HTTP://192.168.200.215:7545\"))"
   ]
  },
  {
   "cell_type": "code",
   "execution_count": 32,
   "metadata": {},
   "outputs": [
    {
     "data": {
      "text/plain": [
       "web3._utils.datatypes.Contract"
      ]
     },
     "execution_count": 32,
     "metadata": {},
     "output_type": "execute_result"
    }
   ],
   "source": [
    "CalcContract = web3.eth.contract(abi=abi, bytecode= bytecode)\n",
    "CalcContract"
   ]
  },
  {
   "cell_type": "code",
   "execution_count": 33,
   "metadata": {},
   "outputs": [
    {
     "data": {
      "text/plain": [
       "web3._utils.datatypes.PropertyCheckingFactory"
      ]
     },
     "execution_count": 33,
     "metadata": {},
     "output_type": "execute_result"
    }
   ],
   "source": [
    "type(CalcContract)"
   ]
  },
  {
   "cell_type": "markdown",
   "metadata": {},
   "source": [
    "### deploy SC"
   ]
  },
  {
   "cell_type": "code",
   "execution_count": 34,
   "metadata": {},
   "outputs": [],
   "source": [
    "# 输入布置合约的地址\n",
    "tx_hash = CalcContract.constructor().transact({\n",
    "    \"from\":list[0]\n",
    "})"
   ]
  },
  {
   "cell_type": "code",
   "execution_count": 35,
   "metadata": {},
   "outputs": [
    {
     "data": {
      "text/plain": [
       "AttributeDict({'transactionHash': HexBytes('0x46a83e559f810b9450b8554eaa646415a97889adc3007083dbd7d7376f3a11d2'),\n",
       " 'transactionIndex': 0,\n",
       " 'blockHash': HexBytes('0x08b512860e53a3d71c73b1d98a9f53c807be6c813617025eef27a6cabd5a5f85'),\n",
       " 'blockNumber': 30,\n",
       " 'from': '0x0e25f0a98bd2ce8f01bba053be509e47f2f99e91',\n",
       " 'to': None,\n",
       " 'gasUsed': 118567,\n",
       " 'cumulativeGasUsed': 118567,\n",
       " 'contractAddress': '0xf5e1A96F2CC423eA2dFb774a75f89E8e785a0Da6',\n",
       " 'logs': [],\n",
       " 'status': 1,\n",
       " 'logsBloom': HexBytes('0x00000000000000000000000000000000000000000000000000000000000000000000000000000000000000000000000000000000000000000000000000000000000000000000000000000000000000000000000000000000000000000000000000000000000000000000000000000000000000000000000000000000000000000000000000000000000000000000000000000000000000000000000000000000000000000000000000000000000000000000000000000000000000000000000000000000000000000000000000000000000000000000000000000000000000000000000000000000000000000000000000000000000000000000000000000000'),\n",
       " 'v': '0x1b',\n",
       " 'r': '0xad9f88e1b05b2ce663293d46148de9b25ac7472f9b4a6dce8020efa3a36eece8',\n",
       " 's': '0x7603c538008a97ef14c93f2417ad2ee9e323af07263d3c4cb7a56d9c8d2c57b4'})"
      ]
     },
     "execution_count": 35,
     "metadata": {},
     "output_type": "execute_result"
    }
   ],
   "source": [
    "tx_receipt = web3.eth.waitForTransactionReceipt(tx_hash) \n",
    "tx_receipt"
   ]
  },
  {
   "cell_type": "markdown",
   "metadata": {},
   "source": [
    "### Invoke SC"
   ]
  },
  {
   "cell_type": "code",
   "execution_count": 36,
   "metadata": {},
   "outputs": [
    {
     "data": {
      "text/plain": [
       "<web3._utils.datatypes.Contract at 0x7f84d222b9b0>"
      ]
     },
     "execution_count": 36,
     "metadata": {},
     "output_type": "execute_result"
    }
   ],
   "source": [
    "# get the local SC instance \n",
    "CalcInstance = web3.eth.contract(\n",
    "    address=tx_receipt.contractAddress,\n",
    "    abi = abi\n",
    ")\n",
    "CalcInstance"
   ]
  },
  {
   "cell_type": "code",
   "execution_count": 37,
   "metadata": {},
   "outputs": [
    {
     "data": {
      "text/plain": [
       "HexBytes('0xfbb2930d380489db25e9bf32c589ba32bff77c05e47e9f9497278175bb75b14a')"
      ]
     },
     "execution_count": 37,
     "metadata": {},
     "output_type": "execute_result"
    }
   ],
   "source": [
    "CalcInstance.functions.add(8,9).transact({\n",
    "    'from':list[3]\n",
    "})"
   ]
  },
  {
   "cell_type": "code",
   "execution_count": 38,
   "metadata": {},
   "outputs": [
    {
     "data": {
      "text/plain": [
       "17"
      ]
     },
     "execution_count": 38,
     "metadata": {},
     "output_type": "execute_result"
    }
   ],
   "source": [
    "CalcInstance.functions.getCount().call()"
   ]
  },
  {
   "cell_type": "code",
   "execution_count": 39,
   "metadata": {},
   "outputs": [
    {
     "data": {
      "text/plain": [
       "17"
      ]
     },
     "execution_count": 39,
     "metadata": {},
     "output_type": "execute_result"
    }
   ],
   "source": [
    "#executing the transaction locally using the eth_call API. This will not create a new public transaction.\n",
    "CalcInstance.functions.add(8,9).call()"
   ]
  },
  {
   "cell_type": "code",
   "execution_count": 40,
   "metadata": {},
   "outputs": [
    {
     "data": {
      "text/plain": [
       "web3._utils.datatypes.Contract"
      ]
     },
     "execution_count": 40,
     "metadata": {},
     "output_type": "execute_result"
    }
   ],
   "source": [
    "type(CalcInstance)"
   ]
  },
  {
   "cell_type": "code",
   "execution_count": null,
   "metadata": {},
   "outputs": [],
   "source": []
  }
 ],
 "metadata": {
  "kernelspec": {
   "display_name": "Python 3",
   "language": "python",
   "name": "python3"
  },
  "language_info": {
   "codemirror_mode": {
    "name": "ipython",
    "version": 3
   },
   "file_extension": ".py",
   "mimetype": "text/x-python",
   "name": "python",
   "nbconvert_exporter": "python",
   "pygments_lexer": "ipython3",
   "version": "3.7.3"
  },
  "toc": {
   "base_numbering": 1,
   "nav_menu": {},
   "number_sections": true,
   "sideBar": true,
   "skip_h1_title": false,
   "title_cell": "Table of Contents",
   "title_sidebar": "Contents",
   "toc_cell": false,
   "toc_position": {},
   "toc_section_display": true,
   "toc_window_display": true
  },
  "varInspector": {
   "cols": {
    "lenName": 16,
    "lenType": 16,
    "lenVar": 40
   },
   "kernels_config": {
    "python": {
     "delete_cmd_postfix": "",
     "delete_cmd_prefix": "del ",
     "library": "var_list.py",
     "varRefreshCmd": "print(var_dic_list())"
    },
    "r": {
     "delete_cmd_postfix": ") ",
     "delete_cmd_prefix": "rm(",
     "library": "var_list.r",
     "varRefreshCmd": "cat(var_dic_list()) "
    }
   },
   "types_to_exclude": [
    "module",
    "function",
    "builtin_function_or_method",
    "instance",
    "_Feature"
   ],
   "window_display": false
  }
 },
 "nbformat": 4,
 "nbformat_minor": 2
}
